{
  "abi": [
    {
      "inputs": [
        {
          "internalType": "address",
          "name": "_USDC",
          "type": "address"
        },
        {
          "internalType": "address",
          "name": "_USDT",
          "type": "address"
        }
      ],
      "stateMutability": "nonpayable",
      "type": "constructor"
    },
    {
      "anonymous": false,
      "inputs": [
        {
          "indexed": true,
          "internalType": "address",
          "name": "owner",
          "type": "address"
        },
        {
          "indexed": true,
          "internalType": "address",
          "name": "approved",
          "type": "address"
        },
        {
          "indexed": true,
          "internalType": "uint256",
          "name": "tokenId",
          "type": "uint256"
        }
      ],
      "name": "Approval",
      "type": "event"
    },
    {
      "anonymous": false,
      "inputs": [
        {
          "indexed": true,
          "internalType": "address",
          "name": "owner",
          "type": "address"
        },
        {
          "indexed": true,
          "internalType": "address",
          "name": "operator",
          "type": "address"
        },
        {
          "indexed": false,
          "internalType": "bool",
          "name": "approved",
          "type": "bool"
        }
      ],
      "name": "ApprovalForAll",
      "type": "event"
    },
    {
      "anonymous": false,
      "inputs": [
        {
          "indexed": true,
          "internalType": "address",
          "name": "previousOwner",
          "type": "address"
        },
        {
          "indexed": true,
          "internalType": "address",
          "name": "newOwner",
          "type": "address"
        }
      ],
      "name": "OwnershipTransferred",
      "type": "event"
    },
    {
      "anonymous": false,
      "inputs": [
        {
          "indexed": true,
          "internalType": "address",
          "name": "from",
          "type": "address"
        },
        {
          "indexed": true,
          "internalType": "address",
          "name": "to",
          "type": "address"
        },
        {
          "indexed": true,
          "internalType": "uint256",
          "name": "tokenId",
          "type": "uint256"
        }
      ],
      "name": "Transfer",
      "type": "event"
    },
    {
      "anonymous": false,
      "inputs": [
        {
          "indexed": false,
          "internalType": "address",
          "name": "owner",
          "type": "address"
        },
        {
          "indexed": false,
          "internalType": "uint256",
          "name": "tokenId",
          "type": "uint256"
        }
      ],
      "name": "mintNFT_FiftyUSD",
      "type": "event"
    },
    {
      "anonymous": false,
      "inputs": [
        {
          "indexed": false,
          "internalType": "address",
          "name": "owner",
          "type": "address"
        },
        {
          "indexed": false,
          "internalType": "uint256",
          "name": "tokenId",
          "type": "uint256"
        }
      ],
      "name": "mintNFT_TenUSD",
      "type": "event"
    },
    {
      "anonymous": false,
      "inputs": [
        {
          "indexed": false,
          "internalType": "uint256",
          "name": "",
          "type": "uint256"
        }
      ],
      "name": "totalSupplyAdded",
      "type": "event"
    },
    {
      "inputs": [
        {
          "internalType": "uint256",
          "name": "",
          "type": "uint256"
        }
      ],
      "name": "NFTInfos",
      "outputs": [
        {
          "internalType": "uint256",
          "name": "tokenId",
          "type": "uint256"
        },
        {
          "internalType": "address",
          "name": "paymentToken",
          "type": "address"
        },
        {
          "internalType": "address",
          "name": "InitialBuyer",
          "type": "address"
        },
        {
          "internalType": "enum IStabln.Price",
          "name": "price",
          "type": "uint8"
        }
      ],
      "stateMutability": "view",
      "type": "function"
    },
    {
      "inputs": [
        {
          "internalType": "enum IStabln.Price",
          "name": "",
          "type": "uint8"
        }
      ],
      "name": "StablnTotalSupplyByPrice",
      "outputs": [
        {
          "internalType": "uint256",
          "name": "",
          "type": "uint256"
        }
      ],
      "stateMutability": "view",
      "type": "function"
    },
    {
      "inputs": [],
      "name": "USDC",
      "outputs": [
        {
          "internalType": "address",
          "name": "",
          "type": "address"
        }
      ],
      "stateMutability": "view",
      "type": "function"
    },
    {
      "inputs": [],
      "name": "USDT",
      "outputs": [
        {
          "internalType": "address",
          "name": "",
          "type": "address"
        }
      ],
      "stateMutability": "view",
      "type": "function"
    },
    {
      "inputs": [
        {
          "internalType": "address",
          "name": "to",
          "type": "address"
        },
        {
          "internalType": "uint256",
          "name": "tokenId",
          "type": "uint256"
        }
      ],
      "name": "approve",
      "outputs": [],
      "stateMutability": "nonpayable",
      "type": "function"
    },
    {
      "inputs": [
        {
          "internalType": "address",
          "name": "owner",
          "type": "address"
        }
      ],
      "name": "balanceOf",
      "outputs": [
        {
          "internalType": "uint256",
          "name": "",
          "type": "uint256"
        }
      ],
      "stateMutability": "view",
      "type": "function"
    },
    {
      "inputs": [
        {
          "internalType": "uint256",
          "name": "tokenId",
          "type": "uint256"
        }
      ],
      "name": "getApproved",
      "outputs": [
        {
          "internalType": "address",
          "name": "",
          "type": "address"
        }
      ],
      "stateMutability": "view",
      "type": "function"
    },
    {
      "inputs": [
        {
          "internalType": "address",
          "name": "owner",
          "type": "address"
        },
        {
          "internalType": "address",
          "name": "operator",
          "type": "address"
        }
      ],
      "name": "isApprovedForAll",
      "outputs": [
        {
          "internalType": "bool",
          "name": "",
          "type": "bool"
        }
      ],
      "stateMutability": "view",
      "type": "function"
    },
    {
      "inputs": [],
      "name": "maxStabln",
      "outputs": [
        {
          "internalType": "uint256",
          "name": "",
          "type": "uint256"
        }
      ],
      "stateMutability": "view",
      "type": "function"
    },
    {
      "inputs": [
        {
          "internalType": "uint256",
          "name": "",
          "type": "uint256"
        }
      ],
      "name": "maxStablnByPrice",
      "outputs": [
        {
          "internalType": "uint256",
          "name": "",
          "type": "uint256"
        }
      ],
      "stateMutability": "view",
      "type": "function"
    },
    {
      "inputs": [
        {
          "internalType": "address",
          "name": "paymentToken",
          "type": "address"
        },
        {
          "internalType": "enum IStabln.Price",
          "name": "_price",
          "type": "uint8"
        }
      ],
      "name": "mint",
      "outputs": [],
      "stateMutability": "nonpayable",
      "type": "function"
    },
    {
      "inputs": [],
      "name": "name",
      "outputs": [
        {
          "internalType": "string",
          "name": "",
          "type": "string"
        }
      ],
      "stateMutability": "view",
      "type": "function"
    },
    {
      "inputs": [
        {
          "internalType": "address",
          "name": "",
          "type": "address"
        },
        {
          "internalType": "address",
          "name": "",
          "type": "address"
        },
        {
          "internalType": "uint256",
          "name": "",
          "type": "uint256"
        },
        {
          "internalType": "bytes",
          "name": "",
          "type": "bytes"
        }
      ],
      "name": "onERC721Received",
      "outputs": [
        {
          "internalType": "bytes4",
          "name": "",
          "type": "bytes4"
        }
      ],
      "stateMutability": "nonpayable",
      "type": "function"
    },
    {
      "inputs": [],
      "name": "owner",
      "outputs": [
        {
          "internalType": "address",
          "name": "",
          "type": "address"
        }
      ],
      "stateMutability": "view",
      "type": "function"
    },
    {
      "inputs": [
        {
          "internalType": "uint256",
          "name": "tokenId",
          "type": "uint256"
        }
      ],
      "name": "ownerOf",
      "outputs": [
        {
          "internalType": "address",
          "name": "",
          "type": "address"
        }
      ],
      "stateMutability": "view",
      "type": "function"
    },
    {
      "inputs": [
        {
          "internalType": "uint256",
          "name": "",
          "type": "uint256"
        }
      ],
      "name": "price",
      "outputs": [
        {
          "internalType": "uint256",
          "name": "",
          "type": "uint256"
        }
      ],
      "stateMutability": "view",
      "type": "function"
    },
    {
      "inputs": [
        {
          "internalType": "uint256",
          "name": "tokenId",
          "type": "uint256"
        }
      ],
      "name": "redeem",
      "outputs": [],
      "stateMutability": "nonpayable",
      "type": "function"
    },
    {
      "inputs": [],
      "name": "renounceOwnership",
      "outputs": [],
      "stateMutability": "nonpayable",
      "type": "function"
    },
    {
      "inputs": [
        {
          "internalType": "address",
          "name": "from",
          "type": "address"
        },
        {
          "internalType": "address",
          "name": "to",
          "type": "address"
        },
        {
          "internalType": "uint256",
          "name": "tokenId",
          "type": "uint256"
        }
      ],
      "name": "safeTransferFrom",
      "outputs": [],
      "stateMutability": "nonpayable",
      "type": "function"
    },
    {
      "inputs": [
        {
          "internalType": "address",
          "name": "from",
          "type": "address"
        },
        {
          "internalType": "address",
          "name": "to",
          "type": "address"
        },
        {
          "internalType": "uint256",
          "name": "tokenId",
          "type": "uint256"
        },
        {
          "internalType": "bytes",
          "name": "data",
          "type": "bytes"
        }
      ],
      "name": "safeTransferFrom",
      "outputs": [],
      "stateMutability": "nonpayable",
      "type": "function"
    },
    {
      "inputs": [
        {
          "internalType": "address",
          "name": "operator",
          "type": "address"
        },
        {
          "internalType": "bool",
          "name": "approved",
          "type": "bool"
        }
      ],
      "name": "setApprovalForAll",
      "outputs": [],
      "stateMutability": "nonpayable",
      "type": "function"
    },
    {
      "inputs": [
        {
          "internalType": "bytes4",
          "name": "interfaceId",
          "type": "bytes4"
        }
      ],
      "name": "supportsInterface",
      "outputs": [
        {
          "internalType": "bool",
          "name": "",
          "type": "bool"
        }
      ],
      "stateMutability": "view",
      "type": "function"
    },
    {
      "inputs": [],
      "name": "symbol",
      "outputs": [
        {
          "internalType": "string",
          "name": "",
          "type": "string"
        }
      ],
      "stateMutability": "view",
      "type": "function"
    },
    {
      "inputs": [
        {
          "internalType": "uint256",
          "name": "tokenId",
          "type": "uint256"
        }
      ],
      "name": "tokenURI",
      "outputs": [
        {
          "internalType": "string",
          "name": "",
          "type": "string"
        }
      ],
      "stateMutability": "view",
      "type": "function"
    },
    {
      "inputs": [],
      "name": "totalSupply",
      "outputs": [
        {
          "internalType": "uint256",
          "name": "",
          "type": "uint256"
        }
      ],
      "stateMutability": "view",
      "type": "function"
    },
    {
      "inputs": [
        {
          "internalType": "address",
          "name": "from",
          "type": "address"
        },
        {
          "internalType": "address",
          "name": "to",
          "type": "address"
        },
        {
          "internalType": "uint256",
          "name": "tokenId",
          "type": "uint256"
        }
      ],
      "name": "transferFrom",
      "outputs": [],
      "stateMutability": "nonpayable",
      "type": "function"
    },
    {
      "inputs": [
        {
          "internalType": "address",
          "name": "newOwner",
          "type": "address"
        }
      ],
      "name": "transferOwnership",
      "outputs": [],
      "stateMutability": "nonpayable",
      "type": "function"
    }
  ],
  "bytecode": {
    "object": "0x6101a0604052606460c09081526103e860e052611388610100526127106101205261c35061014052620f424061016052624c4b406101805262000046906007908162000266565b506040805160e0810182526115b381526108ae60208201526104579181019190915261022b606082015261014d608082015260de60a0820152600260c08201526200009690600e906007620002b0565b50348015620000a457600080fd5b506040516200274038038062002740833981016040819052620000c79162000398565b604080518082018252600781526629ba30b13632b760c91b60208083019182528351808501909452600384526229aa2160e91b9084015281519192916200011191600091620002e7565b50805162000127906001906020840190620002e7565b505050620001446200013e6200021060201b60201c565b62000214565b6001600160a01b038216620001a05760405162461bcd60e51b815260206004820152601460248201527f55534443206973205a45524f204144445245535300000000000000000000000060448201526064015b60405180910390fd5b6001600160a01b038116620001f85760405162461bcd60e51b815260206004820152601460248201527f55534454206973205a45524f2041444452455353000000000000000000000000604482015260640162000197565b6001600160a01b039081166080521660a0526200040c565b3390565b600680546001600160a01b038381166001600160a01b0319831681179093556040519116919082907f8be0079c531659141344cd1fd0a4f28419497f9722a3daafe3b4186f6b6457e090600090a35050565b82600781019282156200029e579160200282015b828111156200029e578251829062ffffff169055916020019190600101906200027a565b50620002ac92915062000364565b5090565b82600781019282156200029e579160200282015b828111156200029e578251829061ffff16905591602001919060010190620002c4565b828054620002f590620003d0565b90600052602060002090601f0160209004810192826200031957600085556200029e565b82601f106200033457805160ff19168380011785556200029e565b828001600101855582156200029e579182015b828111156200029e57825182559160200191906001019062000347565b5b80821115620002ac576000815560010162000365565b80516001600160a01b03811681146200039357600080fd5b919050565b60008060408385031215620003ac57600080fd5b620003b7836200037b565b9150620003c7602084016200037b565b90509250929050565b600181811c90821680620003e557607f821691505b6020821081036200040657634e487b7160e01b600052602260045260246000fd5b50919050565b60805160a0516122dd6200046360003960008181610302015281816109150152818161098e0152610f3d0152600081816103680152818161087b015281816108e601528181610e510152610ed101526122dd6000f3fe608060405234801561001057600080fd5b50600436106101a95760003560e01c8063715018a6116100f9578063c87b56dd11610097578063de9668b211610071578063de9668b214610408578063e985e9c51461041b578063f2fde38b14610457578063f9ed6c0e1461046a57600080fd5b8063c87b56dd1461038a578063db006a751461039d578063db50db42146103b057600080fd5b806395d89b41116100d357806395d89b4114610335578063a22cb4651461033d578063b88d4fde14610350578063c54e44eb1461036357600080fd5b8063715018a6146102f557806389a30271146102fd5780638da5cb5b1461032457600080fd5b806323b872dd11610166578063546e33af11610140578063546e33af146102b35780636352211e146102bc578063691562a0146102cf57806370a08231146102e257600080fd5b806323b872dd1461027a57806326a49e371461028d57806342842e0e146102a057600080fd5b806301ffc9a7146101ae57806306fdde03146101d6578063081812fc146101eb578063095ea7b314610216578063150b7a021461022b57806318160ddd14610263575b600080fd5b6101c16101bc366004611c3c565b61048a565b60405190151581526020015b60405180910390f35b6101de6104dc565b6040516101cd9190611cb1565b6101fe6101f9366004611cc4565b61056e565b6040516001600160a01b0390911681526020016101cd565b610229610224366004611cf9565b610595565b005b61024a610239366004611d23565b630a85bd0160e11b95945050505050565b6040516001600160e01b031990911681526020016101cd565b61026c60155481565b6040519081526020016101cd565b610229610288366004611dbe565b6106af565b61026c61029b366004611cc4565b6106e0565b6102296102ae366004611dbe565b6106f7565b61026c61271081565b6101fe6102ca366004611cc4565b610712565b6102296102dd366004611e09565b610772565b61026c6102f0366004611e3c565b610b22565b610229610ba8565b6101fe7f000000000000000000000000000000000000000000000000000000000000000081565b6006546001600160a01b03166101fe565b6101de610bbc565b61022961034b366004611e65565b610bcb565b61022961035e366004611eb2565b610bda565b6101fe7f000000000000000000000000000000000000000000000000000000000000000081565b6101de610398366004611cc4565b610c12565b6102296103ab366004611cc4565b610c99565b6103f86103be366004611cc4565b60166020526000908152604090208054600182015460029092015490916001600160a01b039081169190811690600160a01b900460ff1684565b6040516101cd9493929190611fa4565b61026c610416366004611cc4565b610f64565b6101c1610429366004611fef565b6001600160a01b03918216600090815260056020908152604080832093909416825291909152205460ff1690565b610229610465366004611e3c565b610f74565b61026c610478366004612019565b60176020526000908152604090205481565b60006001600160e01b031982166380ac58cd60e01b14806104bb57506001600160e01b03198216635b5e139f60e01b145b806104d657506301ffc9a760e01b6001600160e01b03198316145b92915050565b6060600080546104eb90612034565b80601f016020809104026020016040519081016040528092919081815260200182805461051790612034565b80156105645780601f1061053957610100808354040283529160200191610564565b820191906000526020600020905b81548152906001019060200180831161054757829003601f168201915b5050505050905090565b600061057982610fed565b506000908152600460205260409020546001600160a01b031690565b60006105a082610712565b9050806001600160a01b0316836001600160a01b0316036106125760405162461bcd60e51b815260206004820152602160248201527f4552433732313a20617070726f76616c20746f2063757272656e74206f776e656044820152603960f91b60648201526084015b60405180910390fd5b336001600160a01b038216148061062e575061062e8133610429565b6106a05760405162461bcd60e51b815260206004820152603d60248201527f4552433732313a20617070726f76652063616c6c6572206973206e6f7420746f60448201527f6b656e206f776e6572206f7220617070726f76656420666f7220616c6c0000006064820152608401610609565b6106aa838361104c565b505050565b6106b933826110ba565b6106d55760405162461bcd60e51b81526004016106099061206e565b6106aa838383611139565b600781600781106106f057600080fd5b0154905081565b6106aa83838360405180602001604052806000815250610bda565b6000818152600260205260408120546001600160a01b0316806104d65760405162461bcd60e51b8152602060048201526018602482015277115490cdcc8c4e881a5b9d985b1a59081d1bdad95b88125160421b6044820152606401610609565b612710601554106107c55760405162461bcd60e51b815260206004820152601860248201527f6d696e7428293a20657863656564206d6178537570706c7900000000000000006044820152606401610609565b600e8160068111156107d9576107d9611f8e565b600781106107e9576107e96120bb565b01546017600083600681111561080157610801611f8e565b600681111561081257610812611f8e565b8152602001908152602001600020541061086e5760405162461bcd60e51b815260206004820152601f60248201527f6d696e7428293a20657863656564206d6178537570706c7942795072696365006044820152606401610609565b6015546001600160a01b037f00000000000000000000000000000000000000000000000000000000000000008116908416036109135761090e333060078560068111156108bd576108bd611f8e565b600781106108cd576108cd6120bb565b01546108dc90620f42406120e7565b6001600160a01b037f0000000000000000000000000000000000000000000000000000000000000000169291906112aa565b6109f4565b7f00000000000000000000000000000000000000000000000000000000000000006001600160a01b0316836001600160a01b0316036109b65761090e3330600785600681111561096557610965611f8e565b60078110610975576109756120bb565b015461098490620f42406120e7565b6001600160a01b037f0000000000000000000000000000000000000000000000000000000000000000169291906112aa565b60405162461bcd60e51b81526020600482015260136024820152722bb937b733902830bcb6b2b73a102a37b5b2b760691b6044820152606401610609565b6040518060800160405280828152602001846001600160a01b03168152602001336001600160a01b03168152602001836006811115610a3557610a35611f8e565b905260008281526016602090815260409182902083518155908301516001820180546001600160a01b03199081166001600160a01b039384161790915592840151600283018054948516919092169081178255606085015192936001600160a81b03191617600160a01b836006811115610ab157610ab1611f8e565b0217905550506015805491506000610ac883612106565b919050555060176000836006811115610ae357610ae3611f8e565b6006811115610af457610af4611f8e565b81526020019081526020016000206000815480929190610b1390612106565b91905055506106aa3382611315565b60006001600160a01b038216610b8c5760405162461bcd60e51b815260206004820152602960248201527f4552433732313a2061646472657373207a65726f206973206e6f7420612076616044820152683634b21037bbb732b960b91b6064820152608401610609565b506001600160a01b031660009081526003602052604090205490565b610bb061132f565b610bba6000611389565b565b6060600180546104eb90612034565b610bd63383836113db565b5050565b610be433836110ba565b610c005760405162461bcd60e51b81526004016106099061206e565b610c0c848484846114a9565b50505050565b6060610c1d82610fed565b6000610c4760408051808201909152600b81526a6e6565644261736555524960a81b602082015290565b90506000815111610c675760405180602001604052806000815250610c92565b80610c71846114dc565b604051602001610c8292919061211f565b6040516020818303038152906040525b9392505050565b6000610ca482610712565b90506001600160a01b0381163314610cfe5760405162461bcd60e51b815260206004820152601760248201527f72656465656d28293a20496e76616c6964204f776e65720000000000000000006044820152606401610609565b600082815260166020908152604080832081516080810183528154815260018201546001600160a01b039081169482019490945260028201549384169281019290925290916060830190600160a01b900460ff166006811115610d6357610d63611f8e565b6006811115610d7457610d74611f8e565b815250509050604051806080016040528084815260200160006001600160a01b03168152602001306001600160a01b0316815260200182606001516006811115610dc057610dc0611f8e565b905260008481526016602090815260409182902083518155908301516001820180546001600160a01b03199081166001600160a01b039384161790915592840151600283018054948516919092169081178255606085015192936001600160a81b03191617600160a01b836006811115610e3c57610e3c611f8e565b0217905550905050610e4f3330856106f7565b7f00000000000000000000000000000000000000000000000000000000000000006001600160a01b031681602001516001600160a01b031603610ef8576106aa82600783606001516006811115610ea857610ea8611f8e565b60078110610eb857610eb86120bb565b0154610ec790620f42406120e7565b6001600160a01b037f000000000000000000000000000000000000000000000000000000000000000016919061156f565b6106aa82600783606001516006811115610f1457610f14611f8e565b60078110610f2457610f246120bb565b0154610f3390620f42406120e7565b6001600160a01b037f000000000000000000000000000000000000000000000000000000000000000016919061156f565b600e81600781106106f057600080fd5b610f7c61132f565b6001600160a01b038116610fe15760405162461bcd60e51b815260206004820152602660248201527f4f776e61626c653a206e6577206f776e657220697320746865207a65726f206160448201526564647265737360d01b6064820152608401610609565b610fea81611389565b50565b6000818152600260205260409020546001600160a01b0316610fea5760405162461bcd60e51b8152602060048201526018602482015277115490cdcc8c4e881a5b9d985b1a59081d1bdad95b88125160421b6044820152606401610609565b600081815260046020526040902080546001600160a01b0319166001600160a01b038416908117909155819061108182610712565b6001600160a01b03167f8c5be1e5ebec7d5bd14f71427d1e84f3dd0314c0f7b2291e5b200ac8c7c3b92560405160405180910390a45050565b6000806110c683610712565b9050806001600160a01b0316846001600160a01b0316148061110d57506001600160a01b0380821660009081526005602090815260408083209388168352929052205460ff165b806111315750836001600160a01b03166111268461056e565b6001600160a01b0316145b949350505050565b826001600160a01b031661114c82610712565b6001600160a01b0316146111725760405162461bcd60e51b81526004016106099061214e565b6001600160a01b0382166111d45760405162461bcd60e51b8152602060048201526024808201527f4552433732313a207472616e7366657220746f20746865207a65726f206164646044820152637265737360e01b6064820152608401610609565b6111e1838383600161159f565b826001600160a01b03166111f482610712565b6001600160a01b03161461121a5760405162461bcd60e51b81526004016106099061214e565b600081815260046020908152604080832080546001600160a01b03199081169091556001600160a01b0387811680865260038552838620805460001901905590871680865283862080546001019055868652600290945282852080549092168417909155905184937fddf252ad1be2c89b69c2b068fc378daa952ba7f163c4a11628f55a4df523b3ef91a4505050565b6040516001600160a01b0380851660248301528316604482015260648101829052610c0c9085906323b872dd60e01b906084015b60408051601f198184030181529190526020810180516001600160e01b03166001600160e01b031990931692909217909152611627565b610bd68282604051806020016040528060008152506116f9565b6006546001600160a01b03163314610bba5760405162461bcd60e51b815260206004820181905260248201527f4f776e61626c653a2063616c6c6572206973206e6f7420746865206f776e65726044820152606401610609565b600680546001600160a01b038381166001600160a01b0319831681179093556040519116919082907f8be0079c531659141344cd1fd0a4f28419497f9722a3daafe3b4186f6b6457e090600090a35050565b816001600160a01b0316836001600160a01b03160361143c5760405162461bcd60e51b815260206004820152601960248201527f4552433732313a20617070726f766520746f2063616c6c6572000000000000006044820152606401610609565b6001600160a01b03838116600081815260056020908152604080832094871680845294825291829020805460ff191686151590811790915591519182527f17307eab39ab6107e8899845ad3d59bd9653f200f220920489ca2b5937696c31910160405180910390a3505050565b6114b4848484611139565b6114c08484848461172c565b610c0c5760405162461bcd60e51b815260040161060990612193565b606060006114e98361182d565b600101905060008167ffffffffffffffff81111561150957611509611e9c565b6040519080825280601f01601f191660200182016040528015611533576020820181803683370190505b5090508181016020015b600019016f181899199a1a9b1b9c1cb0b131b232b360811b600a86061a8153600a850494508461153d57509392505050565b6040516001600160a01b0383166024820152604481018290526106aa90849063a9059cbb60e01b906064016112de565b6001811115610c0c576001600160a01b038416156115e5576001600160a01b038416600090815260036020526040812080548392906115df9084906121e5565b90915550505b6001600160a01b03831615610c0c576001600160a01b0383166000908152600360205260408120805483929061161c9084906121fc565b909155505050505050565b600061167c826040518060400160405280602081526020017f5361666545524332303a206c6f772d6c6576656c2063616c6c206661696c6564815250856001600160a01b03166119059092919063ffffffff16565b8051909150156106aa578080602001905181019061169a9190612214565b6106aa5760405162461bcd60e51b815260206004820152602a60248201527f5361666545524332303a204552433230206f7065726174696f6e20646964206e6044820152691bdd081cdd58d8d9595960b21b6064820152608401610609565b6117038383611914565b611710600084848461172c565b6106aa5760405162461bcd60e51b815260040161060990612193565b60006001600160a01b0384163b1561182257604051630a85bd0160e11b81526001600160a01b0385169063150b7a0290611770903390899088908890600401612231565b6020604051808303816000875af19250505080156117ab575060408051601f3d908101601f191682019092526117a89181019061226e565b60015b611808573d8080156117d9576040519150601f19603f3d011682016040523d82523d6000602084013e6117de565b606091505b5080516000036118005760405162461bcd60e51b815260040161060990612193565b805181602001fd5b6001600160e01b031916630a85bd0160e11b149050611131565b506001949350505050565b60008072184f03e93ff9f4daa797ed6e38ed64bf6a1f0160401b831061186c5772184f03e93ff9f4daa797ed6e38ed64bf6a1f0160401b830492506040015b6d04ee2d6d415b85acef81000000008310611898576d04ee2d6d415b85acef8100000000830492506020015b662386f26fc1000083106118b657662386f26fc10000830492506010015b6305f5e10083106118ce576305f5e100830492506008015b61271083106118e257612710830492506004015b606483106118f4576064830492506002015b600a83106104d65760010192915050565b60606111318484600085611aad565b6001600160a01b03821661196a5760405162461bcd60e51b815260206004820181905260248201527f4552433732313a206d696e7420746f20746865207a65726f20616464726573736044820152606401610609565b6000818152600260205260409020546001600160a01b0316156119cf5760405162461bcd60e51b815260206004820152601c60248201527f4552433732313a20746f6b656e20616c7265616479206d696e746564000000006044820152606401610609565b6119dd60008383600161159f565b6000818152600260205260409020546001600160a01b031615611a425760405162461bcd60e51b815260206004820152601c60248201527f4552433732313a20746f6b656e20616c7265616479206d696e746564000000006044820152606401610609565b6001600160a01b038216600081815260036020908152604080832080546001019055848352600290915280822080546001600160a01b0319168417905551839291907fddf252ad1be2c89b69c2b068fc378daa952ba7f163c4a11628f55a4df523b3ef908290a45050565b606082471015611b0e5760405162461bcd60e51b815260206004820152602660248201527f416464726573733a20696e73756666696369656e742062616c616e636520666f6044820152651c8818d85b1b60d21b6064820152608401610609565b600080866001600160a01b03168587604051611b2a919061228b565b60006040518083038185875af1925050503d8060008114611b67576040519150601f19603f3d011682016040523d82523d6000602084013e611b6c565b606091505b5091509150611b7d87838387611b88565b979650505050505050565b60608315611bf7578251600003611bf0576001600160a01b0385163b611bf05760405162461bcd60e51b815260206004820152601d60248201527f416464726573733a2063616c6c20746f206e6f6e2d636f6e74726163740000006044820152606401610609565b5081611131565b6111318383815115611c0c5781518083602001fd5b8060405162461bcd60e51b81526004016106099190611cb1565b6001600160e01b031981168114610fea57600080fd5b600060208284031215611c4e57600080fd5b8135610c9281611c26565b60005b83811015611c74578181015183820152602001611c5c565b83811115610c0c5750506000910152565b60008151808452611c9d816020860160208601611c59565b601f01601f19169290920160200192915050565b602081526000610c926020830184611c85565b600060208284031215611cd657600080fd5b5035919050565b80356001600160a01b0381168114611cf457600080fd5b919050565b60008060408385031215611d0c57600080fd5b611d1583611cdd565b946020939093013593505050565b600080600080600060808688031215611d3b57600080fd5b611d4486611cdd565b9450611d5260208701611cdd565b935060408601359250606086013567ffffffffffffffff80821115611d7657600080fd5b818801915088601f830112611d8a57600080fd5b813581811115611d9957600080fd5b896020828501011115611dab57600080fd5b9699959850939650602001949392505050565b600080600060608486031215611dd357600080fd5b611ddc84611cdd565b9250611dea60208501611cdd565b9150604084013590509250925092565b803560078110611cf457600080fd5b60008060408385031215611e1c57600080fd5b611e2583611cdd565b9150611e3360208401611dfa565b90509250929050565b600060208284031215611e4e57600080fd5b610c9282611cdd565b8015158114610fea57600080fd5b60008060408385031215611e7857600080fd5b611e8183611cdd565b91506020830135611e9181611e57565b809150509250929050565b634e487b7160e01b600052604160045260246000fd5b60008060008060808587031215611ec857600080fd5b611ed185611cdd565b9350611edf60208601611cdd565b925060408501359150606085013567ffffffffffffffff80821115611f0357600080fd5b818701915087601f830112611f1757600080fd5b813581811115611f2957611f29611e9c565b604051601f8201601f19908116603f01168101908382118183101715611f5157611f51611e9c565b816040528281528a6020848701011115611f6a57600080fd5b82602086016020830137600060208483010152809550505050505092959194509250565b634e487b7160e01b600052602160045260246000fd5b8481526001600160a01b038481166020830152831660408201526080810160078310611fe057634e487b7160e01b600052602160045260246000fd5b82606083015295945050505050565b6000806040838503121561200257600080fd5b61200b83611cdd565b9150611e3360208401611cdd565b60006020828403121561202b57600080fd5b610c9282611dfa565b600181811c9082168061204857607f821691505b60208210810361206857634e487b7160e01b600052602260045260246000fd5b50919050565b6020808252602d908201527f4552433732313a2063616c6c6572206973206e6f7420746f6b656e206f776e6560408201526c1c881bdc88185c1c1c9bdd9959609a1b606082015260800190565b634e487b7160e01b600052603260045260246000fd5b634e487b7160e01b600052601160045260246000fd5b6000816000190483118215151615612101576121016120d1565b500290565b600060018201612118576121186120d1565b5060010190565b60008351612131818460208801611c59565b835190830190612145818360208801611c59565b01949350505050565b60208082526025908201527f4552433732313a207472616e736665722066726f6d20696e636f72726563742060408201526437bbb732b960d91b606082015260800190565b60208082526032908201527f4552433732313a207472616e7366657220746f206e6f6e20455243373231526560408201527131b2b4bb32b91034b6b83632b6b2b73a32b960711b606082015260800190565b6000828210156121f7576121f76120d1565b500390565b6000821982111561220f5761220f6120d1565b500190565b60006020828403121561222657600080fd5b8151610c9281611e57565b6001600160a01b038581168252841660208201526040810183905260806060820181905260009061226490830184611c85565b9695505050505050565b60006020828403121561228057600080fd5b8151610c9281611c26565b6000825161229d818460208701611c59565b919091019291505056fea2646970667358221220e3d332d2c0583393c8017243f1a19f3a3a93da666d468e283db1b1effeed4ac064736f6c634300080d0033",
    "linkReferences": {}
  },
  "methodIdentifiers": {
    "NFTInfos(uint256)": "db50db42",
    "StablnTotalSupplyByPrice(uint8)": "f9ed6c0e",
    "USDC()": "89a30271",
    "USDT()": "c54e44eb",
    "approve(address,uint256)": "095ea7b3",
    "balanceOf(address)": "70a08231",
    "getApproved(uint256)": "081812fc",
    "isApprovedForAll(address,address)": "e985e9c5",
    "maxStabln()": "546e33af",
    "maxStablnByPrice(uint256)": "de9668b2",
    "mint(address,uint8)": "691562a0",
    "name()": "06fdde03",
    "onERC721Received(address,address,uint256,bytes)": "150b7a02",
    "owner()": "8da5cb5b",
    "ownerOf(uint256)": "6352211e",
    "price(uint256)": "26a49e37",
    "redeem(uint256)": "db006a75",
    "renounceOwnership()": "715018a6",
    "safeTransferFrom(address,address,uint256)": "42842e0e",
    "safeTransferFrom(address,address,uint256,bytes)": "b88d4fde",
    "setApprovalForAll(address,bool)": "a22cb465",
    "supportsInterface(bytes4)": "01ffc9a7",
    "symbol()": "95d89b41",
    "tokenURI(uint256)": "c87b56dd",
    "totalSupply()": "18160ddd",
    "transferFrom(address,address,uint256)": "23b872dd",
    "transferOwnership(address)": "f2fde38b"
  },
  "id": 31
}